:020000040800F2
:10000000C00900207D4B00085D4A00085F4A0008D7
:10001000614A0008634A0008654A000800000000C1
:10002000000000000000000000000000674A000817
:10003000694A0008000000006B4A00086D4A000889
:10004000954B0008994B00089D4B0008A14B0008F8
:10005000A54B0008A94B0008AD4B0008B14B0008A8
:10006000B54B0008B94B0008BD4B0008C14B000858
:10007000C54B0008C94B0008CD4B0008D14B000808
:10008000D54B0008D94B0008DD4B0008E14B0008B8
:10009000E54B0008E94B0008ED4B0008F14B000868
:1000A000F54B0008714A0008F94B0008FD4B0008A9
:1000B000014C0008774A0008054C0008094C00086C
:1000C0000D4C0008114C0008154C0008194C000894
:1000D0001D4C00087D4A0008214C0008254C0008F2
:1000E000294C00082D4C000800000000314C00088D
:1000F000354C0008394C00083D4C0008414C0008C4
:10010000454C0008494C00084D4C0008514C000873
:10011000554C0008594C00085D4C0008614C000823
:10012000654C0008694C00086D4C0008714C0008D3
:10013000754C0008794C00087D4C0008814C000883
:10014000854C0008894C00080000000000000000F9
:100150008D4C0008914C0008954C0008994C000803
:100160009D4C0008A14C0008A54C0008A94C0008B3
:10017000AD4C0008B14C0008B54C00080000000070
:10018000B94C0008BD4C0008C14C0008C54C000823
:10019000C94C0008CD4C0008D14C0008D54C0008D3
:1001A000D94C0008DD4C0008E14C0008E54C000883
:1001B000E94C0008ED4C0008F14C0008F54C000833
:1001C000F94C0008FD4C0008014D0008054D0008E1
:1001D000094D00080D4D0008114D0008154D00088F
:1001E000194D00081D4D0008214D0008254D00083F
:1001F000294D00082D4D0008314D0008354D0008EF
:10020000394D00083D4D0008414D0008454D00089E
:10021000494D00084D4D0008514D0008554D00084E
:10022000594D00085D4D0008614D000800000000B8
:10023000654D0008694D00086D4D0008714D0008BE
:10024000754D0008794D00087D4D0008814D00086E
:10025000854D0008894D00088D4D0008914D00081E
:10026000954D0008994D00089D4D0008A14D0008CE
:10027000A54D0008A94D0008AD4D0008B14D00087E
:10028000B54D0008B94D0008BD4D00080000000044
:10029000C14D0008C54D000838B5040001D101204A
:1002A00032BD04F18405686808B900F024F800F054
:1002B00019F808B100F02EF800F029F8012806D04E
:1002C000206800F005F800F01BF800F08BBA32BD92
:1002D000416821F4904141602068826822F02A023E
:1002E00082607047242068602068016849084900DE
:1002F0000160A06A704700212046297001F088B88B
:100300002068016841F001010160204670472046E5
:1003100000F06CBA204600F075BC2DE9F8430646A3
:1003200006F15407786B0C4615469946202841D1B2
:100330000CB1280001D101203DE000202121F8630B
:10034000796301F0BBF83D807D80B268B2F5805FD3
:1003500004BF316900291ABF21464FF00008A046AA
:1003600005460C4612E000228021304600F010FDC8
:10037000E0B93068002C12BF14F8011B38F8021BDA
:10038000C1F3080181627A88511E79807888CDF89E
:1003900000902B460028E6D100224021304600F094
:1003A000F7FC18B920207863002004E02021032006
:1003B000796300E00220BDE8F28370B50346D3F80C
:1003C0008C0020280AD109B1100001D1012070BD94
:1003D00000F006F8BDE8704000F023BD022070BDBB
:1003E0000020DFF8F843D8661868A0420CD04068B7
:1003F000060209D51C6854E8004F1D6844F080646B
:1004000045E800400028F5D1184670472022816950
:1004100041F00801816170472368DFF8700703F13C
:10042000080252E8002F03F10801024041E80020D1
:1004300000287047236803F1080555E8001F03F101
:10044000080221F0400142E800100028F2D1704774
:10045000206850E8001F7047206881684A0670478E
:1004600000F1080242E80010002870472DE9F84327
:10047000044640F60F0C226804F15C05D66910466C
:100480000768936816EA0C0F06F0200107F02000B9
:100490000DD1002914D010B9D80040F19480A96979
:1004A000002900F08B812046BDE8F4430847DFF8BF
:1004B000E0C613EA0C0F04BFDFF8D8E617EA0E0F08
:1004C00000F081805FEAC67848BF5FEAC75E07D563
:1004D0004FF00109C2F820906A6B42F001026A6392
:1004E000B2070CD5DA070AD5D4F800E00222CEF81C
:1004F0002020D5F8348048F00408C5F8348072070D
:100500000CD5DA070AD5D4F800E00422CEF8202072
:10051000D5F8348048F00208C5F8348032070FD58A
:10052000002808BF13EA0C0F0AD0D4F800C0082234
:10053000CCF82020D5F834E04EF0080EC5F834E0B1
:10054000320509D57F0107D522684FF4006616628F
:100550006F6B47F020076F636A6B002A32D031B1AE
:1005600008B9D80003D5A96909B120468847686B46
:1005700021688A68530602D410F0280F1DD0204647
:1005800000F0D8FCFFF768FF12D5FFF753FF04F126
:100590005C05686A60B1DFF800160165686A01F001
:1005A0005DF900280ED0686A016DBDE8F443084784
:1005B0002046BDE8F24301F0B3BA204601F0B0FA9C
:1005C00000216963FAE02869012840F0B580F1064E
:1005D00000D5F80640F1B0801023136221688868C6
:1005E00042066ED56A6ADFF8B415106888421CBFEF
:1005F000DFF8AC3598422ED0DFF8A865B0421CBFBA
:10060000DFF8A415884226D0DFF8A03598421CBF39
:10061000DFF89C65B0421ED0DFF8981588421CBFF9
:10062000DFF89435984216D0DFF89065B0421CBFD1
:10063000DFF88C1588420ED0DFF8883598421CBF51
:10064000DFF88465B04206D0DFF8801588421CBF11
:10065000DFF87C3598424068298880B2002826D08F
:10066000884224DA6880D069B0F5807F18D000F025
:10067000B5FDFCD100F074FBFCD100F0A1F8FCD179
:100680002020002128632961236853E8001F21F0FE
:1006900010011A46FFF7E6FEF6D1686A00F020FF67
:1006A0000221696129886888091A89B207E08842AD
:1006B00004BFD269B2F5807F84D1022068612046F0
:1006C00036E029886A886888891A00281CBF88B2A1
:1006D000002873D02246136853E8003F146823F4BF
:1006E000907344E800300028F5D11568DFF89C04C9
:1006F00005F1080454E8004F05F10803044043E8FD
:1007000000400028F1D102F15C0320241C63002684
:1007100018619E61146854E8004F156824F01004B5
:1007200045E800400028F5D1022489B25C611046FA
:10073000BDE8F44301F0BCBDF00209D5590207D56C
:100740004FF4801320461362BDE8F24301F0B1BDBF
:10075000300609D5390601D4180205D5E96969B30F
:100760002046BDE8F4430847700615D5790613D531
:10077000236853E8001F21F040011A46FFF772FE7C
:10078000F6D104F15C002021C1620022C261204642
:10079000BDE8F24301F08EBD300206D5790004D5E4
:1007A0002046BDE8F24301F086BDF00148BF002FAE
:1007B00004D52046BDE8F24301F07EBDBDE8F183DB
:1007C000216801F1080353E8001F206821F040016F
:1007D00000F1080242E8001000287047000C0058A1
:1007E00020215160BDE8324070E200002DE9F04167
:1007F00086B004462168DFF8940700250E68A268D9
:100800002369064060691643E2691E4306431643A6
:10081000DFF874270E604B68E06823F4405303430D
:1008200091424B60A6691CBF206A06438F68DFF8BF
:1008300060371F403E438E60CE6A606ADFF85477AF
:10084000DFF854373609B94240EA0616CE620FF295
:10085000843645D1586D10F0380000F09A80082891
:1008600000F0D080102848D0182857D0202800F059
:100870006780282800F077804FF0800C9142DFF8E5
:100880001C07DFF81CE74FF4004840F0E680BCF19D
:10089000040F00F0BA80BCF1080F00F0BB80BCF17F
:1008A000100F00F0BC80BCF1200F00F0C080BCF144
:1008B000400F00F0BE805BE102F012F9002800F06A
:1008C0005881626A36F81260626802EB4201B0FB3E
:1008D000F6F68E4203D31303B34280F0AC8047E1B7
:1008E000DFF8C076B9420BD100F087F9C4D8DFE851
:1008F00000F075890415273ABEE74FF0080CBDE7F4
:10090000DFF8A476B9420CD100F077F9B4D8DFE86B
:1009100000F065790405172AAEE7EEE74FF0100CFA
:10092000ACE7DFF8F077B9420DD100F066F9A3D853
:10093000DFE800F05468050406199DE7EEE7DCE700
:100940004FF0200C9AE7DFF8D077B9420ED100F0D3
:1009500054F9F2D8DFE800F04256060504078BE7A9
:10096000EEE7DBE7C9E74FF0400C87E7DFF8AC774D
:10097000B94211D1586D10F038000AD0082841D082
:100980001028BAD01828C9D02028D9D02828EAD0D1
:1009900072E74FF0010C71E7DFF88477B9420CD1B0
:1009A00000F02BF9F4D8DFE800F0192D0706050454
:1009B00062E7D8E7C4E7B1E79FE7DFF81C78B94200
:1009C0000ED100F01AF9F3D8DFE800F0081C070692
:1009D000050451E7C7E7B3E7A0E78EE7AC464DE76C
:1009E0009142F6D1986D00F00700052804D8DFE8A1
:1009F00000F00809070605043EE7B4E7A0E78DE725
:100A00007BE759E74FF0040C38E703A802F078F8C9
:100A1000049853E7684602F09FF801984EE719687A
:100A20008A0605D51F68C7F3C101C84046E770466E
:100A300047E7404645E75008002110EB062051EB00
:100A40001661002302F02EFAA0F54076DFF8401878
:100A50008E421DD22768F8608BE0E1694FF6F0778F
:100A6000B1F5004F44D1BCF1000F12D0BCF1010F21
:100A700025D0BCF1040F25D0BCF1080F27D0BCF164
:100A8000100F29D0BCF1200F2ED0BCF1400F2DD07B
:100A90006EE002F026FC00286BD000F0A7F84E08AC
:100AA00006EB4006B6FBF1F0A0F11001B9425FD2AF
:100AB0000740C0F3420007432068C76059E002F0D6
:100AC00018FCE8E703A802F01BF80498E3E768467F
:100AD00002F042F80198DEE719688A06DDD5196848
:100AE000C1F3C101C840D6E77046D6E74046D4E717
:100AF000BCF1000F12D0BCF1010F20D0BCF1040FEB
:100B000020D0BCF1080F22D0BCF1100F24D0BCF1D2
:100B1000200F29D0BCF1400F28D029E002F0E1FBE2
:100B200038B300F063F800EB5100B0FBF1F0A0F136
:100B30001001B9421CD2226880B2D06019E002F0E4
:100B4000D8FBEDE703A801F0DBFF0498E8E768466F
:100B500002F002F80198E3E719688A06E1D51968FE
:100B6000C1F3C101C840DBE77046DAE74046D8E789
:100B7000012504F168000121002341800180C36048
:100B80000361284606B0BDE8F0810000FEFFFFEFDC
:100B90000100001020010004CD0F000810000240E9
:100BA000280002404000024058000240700002400D
:100BB00088000240A0000240B80002401004024039
:100BC00028040240400402405804024070040240DD
:100BD00088040240010002000400060008000A0028
:100BE0000C0010002000400080000001626A616873
:100BF00036F81230B0FBF3F07047586D00F0070084
:100C00000528704710B590F828100A0706D5026825
:100C10005368816B23F400430B43536090F8282002
:100C2000D10706D502685368C16A23F400330B4329
:100C3000536090F82820910706D502685368016B2D
:100C400023F480330B43536090F82820510706D5D6
:100C500002685368416B23F480230B43536090F880
:100C60002820D10606D502689368C16B23F480530F
:100C70000B43936090F82820910606D5026893688C
:100C8000016C23F400530B43936090F82820510625
:100C900010D502685368416C23F480130B435360F2
:100CA000446CB4F5801F05D15368816C23F4C003F4
:100CB0000B43536090F82820110606D501684A6856
:100CC000C06C22F4002202434A6010BDF8B504460D
:100CD00004F1840500216FF07E47E96000F0EEFB2F
:100CE0000646206801680A0715D50097334600229A
:100CF0004FF40011204600F04BF860B1FFF7A8FB5D
:100D000021F080010246FFF7ADFBF7D104F184002A
:100D10002021416016E0206801684A0716D5009737
:100D2000334600224FF48001204600F031F868B1CC
:100D300000F024F8FCD100F013F8FCD104F1840099
:100D400020218160002202700320F2BD202020219A
:100D500068600022A9600020E26620672870F2BD6A
:100D6000216801F1080353E8001F20684908490081
:100D700000F1080242E8001000287047206850E89F
:100D8000001F21F49071024642E8001000287047CD
:100D90002DE9F04105460E4690461F46069C286800
:100DA000C1693140B1420CBF01200020404536D11D
:100DB00014F1010FF3D000F081FBC01B844200D37B
:100DC00014B90320BDE8F081286801684A07E6D518
:100DD000802E18BF402EE2D0C1690A0703D4C16932
:100DE0000A05DCD50DE02B6808201862284600F0C3
:100DF000A1F805F184000821C160002202700120E1
:100E0000E0E729684FF400600862284600F092F895
:100E100005F184002022C26000210170D1E700208A
:100E2000D0E770B503460020996503F15C010A80A4
:100E3000FF244A8088619868B0F5805F04D1186902
:100E400088B940F2FF140EE010B9186958B104E0F7
:100E5000B0F1805F06D1186908B97F2403E03F2014
:100E6000888001E000248C800020222548630D63E7
:100E7000196801F1080656E8001F186841F00101E1
:100E800000F1080444E800100028F1D103F15C01EE
:100E90008868B0F1005F26D18C89A24223D39A687A
:100EA000B2F5805F04BF1869002803D10FF2413208
:100EB0008A610BE00FF281248C61186930B100F077
:100EC00034F841F48071FFF7CDFAF8D1196801F1D7
:100ED000080454E8001F186841F08051FFF7C0FA79
:100EE000F4D1002070BD9A68B2F5805F04BF186924
:100EF00000280CD10FF251148C61186850E8001FC3
:100F000041F020010246FFF7ADFAF6D1E9E70FF212
:100F1000C9048C6118690028EFD000F006F841F48C
:100F20009071FFF79FFAF8D1DBE7196851E8001FCD
:100F30001A68704710B500F039F8FCD100F014F8C9
:100F4000FCD1C26E012A08D1016851E8002F22F0BD
:100F500010020B4600F036F8F6D120210022C0F82E
:100F60008C10C266426710BD0468DFF8001404F1FB
:100F7000080353E8003F04F108020B4042E8003147
:100F80000029704700000000000C0058F369FFCFF3
:100F9000FFF4FF1100100140004402580090D003FC
:100FA00000093D000044004000480040016851E84D
:100FB000002F22F490720B4643E80021002970476D
:100FC00001F1080343E8002100297047806B0021EC
:100FD000A0F85E1000F0A4BD70B500F05EF81FD15F
:100FE0004B6A9188846D0B402370836D5D1C00F00B
:100FF0005AF819D100F05EF8FCD100F016F8FCD1D7
:1010000000F06CF80BD10023136100F05DF8FCD107
:101010000168CB69DC0644BF10250D6282E086E0E2
:10102000886940F00800886170BD026802F1080418
:1010300054E8002F01685208520001F1080343E808
:10104000002100297047000070B500F026F81FD17C
:101050004B6A9188846D0B402380836D9D1C00F04A
:1010600022F819D100F026F8FCD1FFF7DEFFFCD101
:1010700000F034F80BD10023136100F025F8FCD107
:101080000168CB69DC0644BF10250D624AE04EE0E2
:10109000886940F00800886170BD00F15C02016859
:1010A000136B222B704785655488661E56805188C5
:1010B00000297047026852E8002F036822F49072FA
:1010C00043E8002100297047016851E8003F23F000
:1010D00010030C4644E800310029704700F15C021F
:1010E0002021116300249461002555610168A04B03
:1010F00099420CD049680D0209D5036853E8003FB6
:10110000046823F0806344E800310029F5D11169B7
:1011100001297047004C004000500040001401407D
:10112000007800401188BDE8704001F0C1B8BDE80A
:10113000704000F060BD00002DE9F84300F0EFF8CA
:1011400045D1A889002835D0B90633D500F0E1F89B
:101150000870A06D421C00F09DF812D0F90748BF3E
:101160005FEAC85200F09FF803D5F20701D500F0FE
:10117000B0F800F0A1F820B1204600F0D1FC002129
:10118000696368880028DFD100F028F8FCD1FFF7F8
:1011900043F9FCD100F0D1F809D100F0EFF844BFD9
:1011A000102303622988204601F082F802E02046DD
:1011B00000F021FD688860B1A989884209DA00F051
:1011C00090F86C48A86100F09AF8FCD101E0FFF7B4
:1011D0001EF9BDE8F1830000007C0040216851E861
:1011E000001F226821F4807142E800100028704737
:1011F0002DE9F84300F093F845D1A889002835D0AF
:10120000B90633D500F085F80880A06D821C00F087
:1012100041F812D0F90748BF5FEAC85200F043F81E
:1012200003D5F20701D500F054F800F045F820B1DD
:10123000204600F075FC0021696368880028DFD132
:10124000FFF7CCFFFCD1FFF7E7F8FCD100F075F811
:1012500009D100F093F844BF102303622988204687
:1012600001F026F802E0204600F0C5FC688860B175
:10127000A989884209DA00F034F83F48A86100F0F3
:101280003EF8FCD101E0FFF7C2F8BDE8F1830000B1
:1012900000FD0F00A26569884B1E6B802068C7693E
:1012A00017F0070F704705D501230362686B40F004
:1012B00001006863B9077047790708D5F20706D5BA
:1012C0002168042008626A6B42F002026A63686B5C
:1012D00070472168022008626A6B42F004026A6368
:1012E0007047236803F1080959E8001F03F1080259
:1012F00021F0805142E800100028F2D170472168A7
:1013000051E8001F226841F0200142E80010002847
:1013100070472068406AA16D09EA000070470446E2
:1013200004F15C052068B5F80490C7690246D2F85C
:1013300000808668296B22297047202100222963BA
:101340000B49A8616A61206888420CD0406803029A
:1013500009D5216851E8001F226821F0806142E828
:1013600000100028F5D1286901287047FEFFFFEF23
:10137000000C0058D90F000849100008002129610D
:10138000206850E8001F21F01001024642E80010DA
:101390000028F5D12068C169CA06704781B040486D
:1013A000016841F002010160006800F00200009055
:1013B000009901B0704780B500683A4A3A499042B6
:1013C0000FD18868002240F00100886089681920E8
:1013D00001F001010091009B002101F0D0FF1920D4
:1013E00011E0324A904212D10868002240F0020017
:1013F0000860096801F002010091009800211D2099
:1014000001F0BDFF1D20BDE8024001F0D5BF01BDC8
:1014100010B5B6B004461421002201A802F036F837
:10142000C021002206A802F031F820682049884235
:1014300033D101220023002406A8CDE906232594F8
:1014400000F058FF08B100F007FF1A48026942F0A7
:1014500010020261016901F010010091009A036815
:101460004FF44041022243F002030360006800F0A1
:1014700002000090009B02920422019101A90394B2
:101480000D480494059202F00BF80022002125205B
:1014900001F075FF252001F08FFF36B010BD000070
:1014A000F444025800000140E8440258000400409F
:1014B00000100140E044025800040258014840680E
:1014C000704700BF7C030020DFF88C3398427047E0
:1014D000DFF8801388427047DFF87423904270472A
:1014E0002DE9F84F0446FFF7E9FF002C009008D0E3
:1014F00004F134004178022904D0802200230262E2
:101500000370E6E02568DFF8BC6500F099F9DFF8C4
:10151000B895DFF8B8B5DFF8B8C5DFF8B8E5DFF89B
:10152000B885B54218BF454526D0754518BF6545F5
:1015300022D05D4518BF4D451ED09D4218BF954233
:101540001AD08D421CBFDFF89475BD4214D0C04F35
:10155000BD421CBFDFF88875BD420DD0BD4FBD42F6
:101560001CBFDFF88075BD4206D0BB4FBD421CBF1B
:10157000DFF87475BD420CD12D68276825F01E0573
:101580003D602568D5F814A02AF0800AC5F814A09B
:1015900006E02F46BA463D6825F00E05CAF8005011
:1015A000D4F800A02568B24518BFC24546D0F24520
:1015B00018BFE24542D0DA4518BFCA453ED09A4529
:1015C00018BF92453AD08A451CBFDFF81075BA455E
:1015D00034D09F4FBA451CBFDFF80475BA452DD0F3
:1015E0009C4FBA451CBFDFF8FC74BA4526D09A4F11
:1015F000BA451CBFDFF8F074BA451FD0DFF8EC74B1
:10160000BA451CBFDFF8E874BA4517D0DFF8E474B8
:10161000BA451CBFDFF8E074BA450FD0DFF8DC74C0
:10162000BA451CBFDFF8D874BA4507D0DFF8D474C8
:10163000BA451CBFDFF87874BA4506D1C06AD0F845
:1016400000A02AF4807AC0F800A02068B04218BF39
:10165000404526D0704518BF604522D0584518BF78
:1016600048451ED0984218BF90421AD088421CBFED
:10167000DFF86814884214D0FFF72EFF1CBFDFF894
:10168000603498420DD0FFF723FF1CBFDFF85424CD
:10169000904206D0FFF718FF1CBFDFF84C148842B9
:1016A00019D181464A46D9F8000040084000106030
:1016B000009E2868C10715D5FFF700FF801B06288C
:1016C000F7D304F134002021016203234370002486
:1016D00004700120B2E00246114610684008400044
:1016E0000860E5E72668C646D946DFF8D88304F1E6
:1016F0003401DFF85CA1DFF81004DFF81024DFF814
:101700001034DFF8C453DFF8C8B3DFF8C8C3464568
:1017100018BF764525D0664518BF5E4521D04E4599
:1017200018BFAE421DD09E4218BF964219D08642C5
:101730001CBFDFF8A873BE4213D056451CBFDFF8AC
:10174000A073BE420DD0434FBE421CBFDFF894735E
:10175000BE4206D0404FBE421CBFDFF88C73BE4273
:1017600008D191F828703F2607F01F07BE404F6A46
:10177000BE6007E091F82870012607F01F07BE4001
:101780004F6A7E602468444518BF744544D0644560
:1017900018BF5C4540D04C4518BFAC423CD09C4281
:1017A00018BF944238D084421CBFDFF83003844213
:1017B00032D054451CBFDFF8282394422CD0254B4F
:1017C0009C421CBFDFF81C03844225D0224A94426D
:1017D0001CBFDFF814339C421ED0DFF81003844294
:1017E0001CBFDFF80C23944216D0DFF808339C426C
:1017F0001CBFDFF8040384420ED0DFF800239442BC
:101800001CBFDFF8FC329C4206D0DFF8F8028442AD
:101810001CBFA74A94420CD10C6B4B6B6360886B66
:1018200038B103461A6822F480720260CA6B0B6CEE
:10183000536001200023487000200B70BDE8F28F38
:10184000DFF8C412DFF8C422DFF8C43270470000AA
:101850004004024070040240A00402402DE9F84F09
:1018600030B100F134025178022903D08020106297
:10187000012013E10168DFF84CA2DFF86032DFF8E5
:101880008842DFF8885200F00BF9DFF844E2DFF815
:101890004482DFF84492514518BF494527D041455D
:1018A00018BF714523D0614518BF59451FD0B142BB
:1018B00018BFA9421BD0A14218BF994217D0DFF828
:1018C0005472B9421CBFDFF81872B9420FD0DFF86A
:1018D0004872B9421CBFDFF80C72B94207D0DFF87A
:1018E0003C72B9421CBFDFF80072B94233D1042701
:1018F0005145577018BF494526D0414518BF71451D
:1019000022D0614518BF59451ED0B14218BFA94227
:101910001AD0A14218BF994216D0DFF8F82191429F
:101920001CBFDFF8BC3199420ED0DFF8EC41A14278
:101930001CBFDFF8B021914206D000F0BBF81CBFFD
:10194000DFF8A441A14230D10A46084615686D0867
:101950006D000560A1E00968076821F00E0139609B
:101960000168514518BF494526D0414518BF71450A
:1019700022D0614518BF59451ED0B14218BFA942B7
:101980001AD0A14218BF994216D0DFF88871B94227
:101990001CBFDFF84C71B9420ED0DFF87C71B94240
:1019A0001CBFDFF84071B94206E00A4608461368DA
:1019B0005B085B00036070E009680768490849003C
:1019C00039600168514518BF494545D0414518BFA8
:1019D000714541D0614518BF59453DD0B14218BF4E
:1019E000A94239D0A14218BF994235D000F065F81C
:1019F0001CBFDFF8EC40A1422ED0DFF81C51A942F9
:101A00001CBFDFF8E030994226D0DFF81041A14238
:101A10001CBFDFF8D450A9421ED0DFF8D030994265
:101A20001CBFDFF8CC40A14216D0DFF8C850A94255
:101A30001CBFDFF8C43099420ED0DFF8C040A1428D
:101A40001CBFDFF8BC50A94206D0DFF8B83099427D
:101A50001CBF174CA14219D1D16A0B6823F48073C3
:101A60000B6092F82840536A012104F01F04A14042
:101A70005960156B546B6C60916B39B10C462368DF
:101A800023F480730B60D36B146C5C600121002421
:101A90005170D169147001B188470020BDE8F28F00
:101AA000DFF86C60DFF820B0DFF820C0704700007E
:101AB00094540258194B99427047164B99427047FB
:101AC0000000000010000240880002407000024048
:101AD0005800024040000240280002402804024012
:101AE0005804024088040240B804024008540258D6
:101AF0001C54025830540258445402585854025846
:101B00006C5402588054025810040240B80002403D
:101B1000A00002404004024070040240A0040240C1
:101B200070B50446DFF8E016D4F89050206888427B
:101B300041D12B07DFF8D4660DD500F040F86423BF
:101B400014220FF2187100F037F8002200F038F874
:101B5000216808200862AA070DD500F030F8642338
:101B600011220FF2107100F027F8002200F028F87F
:101B70002168042008626A070DD500F020F864236C
:101B800013220FF2047100F017F8002200F018F889
:101B9000216802200862EA070DD500F010F86423DE
:101BA00012220FF2F86100F007F8002200F008F8A6
:101BB00021680120086270BD2046FEF7AEBB0122FD
:101BC0004FF40061304601F050BDDFF8440642F2A8
:101BD00027310268D1626FF00102C1600068002104
:101BE00041620261C36843F00103C360016841F0D0
:101BF00001010160704710B50446DFF80C1620683B
:101C0000884216D1FFF7E1FFDFF80816DFF8083643
:101C1000888A0A781A54401C888201222046FEF7DE
:101C2000CCFB01220221DFF8F405BDE8104001F0F1
:101C30001CBD10BD2DE9FC410546DFF8E4352868E0
:101C4000DFF8D04598423ED1A28ADFF8CC1504F1E6
:101C50006C0001F03CFD04F16C0001F029FF20BB99
:101C6000694604F16C0001F0A9FF0646DFF89C8587
:101C7000012200F064F80021019102E0019A521C57
:101C800001920198B0F5FA7FF8DB9DF80020DFF8AB
:101C90009475642331463846FEF73FFB3868C169C6
:101CA0004A06FCD5002200F04AF80020DFF86C65F7
:101CB000A08200220221304601F0D7FC012201213E
:101CC000304601F0D2FC2868DFF85C15884234D138
:101CD0006078401CC2B2652AA8BF00206070A06C6A
:101CE000DFF84815401C884228BF0020A06400226D
:101CF000A11804EB8203087904EB4205B0B1A018E7
:101D0000017B59B1A06C0A26298DB0FBF6F04E007C
:101D1000B0FBF6F806FB1800884207D36078298BE1
:101D2000884203D2D86C2D8F856103E0298FD86C4F
:101D300009048161521C082ADADBBDE8F3814FF403
:101D40000061404601F091BC521E032A70B5A0F11B
:101D500010040546DFF8BC6429D8DFE802F0020C65
:101D60000F197019082DB8BF00791BDB082C1CD285
:101D700010F8040C16E0C0B9012013E006EB450092
:101D8000082DB8BF008B0DDB082C0ED2008909E0AE
:101D900010B1012804D008E043F239020A8070BD76
:101DA0004DF231400880002070BD022070BD05203A
:101DB00070BD052AA0F1100310B5DFF8584402D019
:101DC000062A14D028E02218082806DAB1F57F4F39
:101DD0000CBF0120002010711AE0082B1AD2B1F5B7
:101DE0007F4F0CBF0120002002F8040C10E00828EF
:101DF00004EB400203DA652907DA118308E0082BB7
:101E000008D241F28930814201DB032010BD1181EB
:101E1000002010BD022010BD052010BD2DE9F043AB
:101E200087B06846002100220023002480E81E00BD
:101E300001F0DFFA012187228DF800101F218DF8B3
:101E4000081001218DF8014068460194DFF8CC7339
:101E50008DF80920DFF8D883ADF80A40DFF8D49375
:101E60008DF80C10DFF8A4538DF80D10DFF8C8635F
:101E7000ADF80E40DFF8C44301F0D2FA042001F0BF
:101E8000C2FA01F0A1FE00F0ABF900F062F921689E
:101E900041F000712160206800F00070009000990E
:101EA000002001F0C5FE0021002001F0CBFE002241
:101EB0000121384601F0D9FB00220221384601F009
:101EC000D4FB1421684601F0C9FE216841F00101EC
:101ED0002160206800F0010000F01AF942F00202CF
:101EE0002260206800F0020000F012F942F02002A7
:101EF0002260206800F0200000F00AF942F0080299
:101F00002260206800F0080000F002F942F48062CC
:101F10002260206800F4806000F0FAF842F00402C9
:101F200022602068C64C002200F00400059005994C
:101F30002046702101F099FB00220621404601F065
:101F400094FB00224FF46051484601F08EFB00F0F4
:101F5000F3F800220321384601F087FB00224FF4FA
:101F60000071304601F081FB7021012200910023B5
:101F70000192029369460393204601F091FA0621EB
:101F800000F0E0F8404600F0C0F84FF4605100F077
:101F9000D9F8484600F0B9F84FF4006100F0D2F8E3
:101FA000284600F0B2F8032100F0CCF8384603933D
:101FB0009C4F01F075FA4FF4007100F0C3F8304601
:101FC00000F0A3F89049002239604FF4E1307860C6
:101FD0000C21BA603846FA603A617961BA61FA61F7
:101FE0003A627A62BA62FEF757F908B100F034F942
:101FF0000021384601F053FE08B100F02DF9002110
:10200000384601F057FE08B100F026F9384601F0D5
:1020100029FE08B100F020F900F07EF8DFF8F08129
:1020200000F06CF87E480021C8F8000004224FF64A
:10203000FF7300F077F8C8F81410C8F8181001F012
:102040008BFE08B100F008F94FF4805903A9CDF8D0
:102050000C90404601F0D4FF08B100F0FDF80821D3
:10206000404601F0FFFE08B100F0F6F800214046BE
:10207000009101910291694602F0DCF808B100F08C
:10208000EBF800F049F8DFF8BC8100F037F866485B
:102090000021C8F800001822632300F043F8C8F8B4
:1020A000181001F059FE08B100F0D6F8CDF80C90E8
:1020B00003A9404601F0A4FF08B100F0CDF80021CB
:1020C000404600910291694602F0B4F808B100F070
:1020D000C3F8404601F04DFE00F02EF80122102119
:1020E000204601F0C2FA01224A493846FEF765F956
:1020F0004FF40071304601F0BCFAF9E780E80E10A9
:102100006946002081E80D007047039301F0C8B9CB
:102110000590059922687047002103A8002200233A
:102120008C467047C8F80420C8F808104046C8F824
:102130000C30C8F81010704700224FF40061284698
:1021400001F093BA012200910023019269460293A3
:10215000704780B59CB04C2109A801F07FFD20217B
:1021600001A801F07BFD022002F0B4F800200090ED
:102170003548016849084900016002683348012177
:1021800002F001020092026861F38F32026003687C
:1021900003F440430093009902689304FCD50121A5
:1021A0004FF48032002309910A9209A8129302F099
:1021B000CDF808B100F050F83F2102220191002132
:1021C00000230292039301A80491059106910791BF
:1021D000089100F0EBFE08B100F03EF81DB000BD24
:1021E00010B50C4C012104F16C0001F065FA18499E
:1021F00004F16C0001F065FA04F16C001549BDE8CA
:10220000104001F061BA000000100140000C0258BB
:102210002405002000000020900300200028025820
:10222000000001409004002000040040A18601004D
:10223000000402580014025800080258E0440258F2
:1022400000000258700500202C040058184802585D
:10225000491D0008B31D000872B6FEE74572723AC8
:10226000204F76657272756E20284F5245290D0AEF
:10227000000000004572723A204E6F697365202895
:102280004E45290D0A0000004572723A20467261DF
:102290006D696E6720284645290D0A004572723A1D
:1022A0002050617269747920285045290D0A000078
:1022B0007047704770477047704730B50168846851
:1022C0004218416802EB5103C90703D54C4401E0B1
:1022D000491C08D19A4218BF12F9011B01D10C30D8
:1022E00030BD12F8015B002904F8015BF0D4491EEF
:1022F000F7D5EFE72DE9F04704460025D4E90001C2
:102300000201A846DFF8D47722D5A36E4BB1B3F50E
:10231000801F0BD0B3F5001F15D0B3F5401F09D0B7
:1023200014E0FA6942F40032FA6105E0022100F09B
:10233000D0FB054628000AD1396CA06E21F440116B
:102340000143396404E000F0BEFBF2E70125A84632
:10235000D4E90001C3051CD5A26D042A17D8DFE813
:1023600002F0030E1205050000F0A3FB28000FD1B8
:10237000396CA06DC90840EAC101396409E000F078
:10238000A7FB0546F2E7002100F099FBF9E70125DC
:10239000A846D4E90001820520D5E36D4BB1402B5E
:1023A00012D0802B14D0C02B18BFB3F5807F02D081
:1023B00012E000F07EFB28000FD1396CE06D21F4B3
:1023C000E0710143396409E000F082FB0546F2E761
:1023D000002100F074FBF9E70125A846D4E90001CB
:1023E000420504F1840623D5736A63B1B3F5001F77
:1023F00014D0B3F5800F15D0B3F5C00F18BFB3F5E7
:10240000000F02D012E000F054FB28000FD1B96C8D
:10241000706A21F460010143B96409E000F058FBDF
:102420000546F2E7002100F04AFBF9E70125A8463E
:10243000D4E90001020523D5B36A63B1B3F1807F0B
:1024400014D0B3F1007F15D0B3F1407F18BFB3F1C2
:10245000806F02D012E000F02CFB28000FD1B96C85
:10246000B06A21F0E0610143B96409E000F030FB9B
:102470000546F2E7002100F022FBF9E70125A84616
:10248000D4E9000182011AD5E36C43B1102B04D0CA
:10249000202B0DD0302B02D00FE000F00AFB2800DB
:1024A0000CD1F96BE06C21F030010143F96306E0D7
:1024B000022100F00EFB0546F1E70125A846D4E90C
:1024C0000001C20423D5236E63B1B3F5805F14D03D
:1024D000B3F5005F15D0B3F5405F18BFB3F5804F7B
:1024E00002D012E000F0E5FA28000FD1396C206E1E
:1024F00021F4E0410143396409E000F0E9FA0546BE
:10250000F2E7002100F0DBFAF9E70125A846D4E95B
:102510000001820422D5636E93B1B3F5803F0BD0E6
:10252000B3F5003F15D0B3F5403F1CBFB3F5802F86
:10253000B3F5A02F04D00FE0012100F0CAFA054640
:1025400028000AD1396C606E21F4E021014339641E
:1025500004E000F0B3FAF2E70125A846D4E900014F
:10256000420422D5F36A93B1B3F1805F0BD0B3F18B
:10257000005F15D0B3F1405F1CBFB3F1804FB3F1E2
:10258000A04F04D00FE0012100F0A3FA0546280077
:102590000AD1B96CF06A21F0E0410143B96404E06A
:1025A00000F08CFAF2E70125A846D4E90001020404
:1025B0001AD5236F43B1B3F1805F03D0B3F1005F4D
:1025C0000BD00FE000F075FA28000CD1396C206FA9
:1025D00021F040510143396406E0012100F079FA0D
:1025E0000546F1E70125A846D4E90001C30118D545
:1025F000A26C032A13D8DFE802F004020D0400F0F5
:1026000058FA28000CD1F96BA06C890840EA8101C6
:10261000F96306E0022100F05CFA0546F1E70125C6
:10262000A846D4E9000143023FD5DFF89896D9F8CF
:10263000002042F48072C9F80020FEF73FFF824676
:10264000D9F80000C10506D4FEF738FFA0EB0A0058
:102650006528F5D327E0280026D1386E316B00F4C9
:10266000407001F4407188420BD0386E396E41F4ED
:10267000803139663A6E20F4407022F480323A6636
:102680003866306BB0F5807F2BD1FEF717FF81469F
:10269000386E820725D4FEF711FFA0EB090041F246
:1026A00089318842F4D30325A8462278D10738D54A
:1026B000E06F68B1082807D010282DD018281CBF5B
:1026C0002028282804D02AE0012100F002FA05463B
:1026D000280025D1796CE06F21F03801014379643D
:1026E0001FE0306B00F44072B2F5407F09D13968C9
:1026F000DFF8D42502EA101221F47C51114339602D
:1027000003E03B6823F47C533B60386E316BC1F3CC
:102710000B0108433866C8E700F0D0F9D7E7012578
:10272000A84621788A0719D5A06F052814D8DFE8B4
:1027300000F0070310070707012100F0CAF905465A
:1027400028000AD1796CA06FC90840EAC1017964F8
:1027500004E000F0B3F9F2E70125A84621784A0722
:1027600019D53069052814D8DFE800F007031007F1
:102770000707012100F0ADF9054628000AD1B96C20
:102780003069C90840EAC101B96404E000F096F973
:10279000F2E70125A84621788A0621D5F06888B19C
:1027A000B0F1805F0BD0B0F1005F14D0B0F1405FAA
:1027B0001CBFB0F1804FB0F1A04F03D00EE000F08D
:1027C00087F9054628000AD1796CF06821F0E041CC
:1027D0000143796404E000F076F9F2E70125A846A8
:1027E00021784A0621D5B06988B1B0F5806F0BD049
:1027F000B0F5006F14D0B0F5406F1CBFB0F5805F2E
:10280000B0F5A05F03D00EE000F062F905462800A5
:102810000AD1B96CB06921F4E0510143B96404E014
:1028200000F051F9F2E70125A84621780A0621D5E2
:10283000F06988B1B0F5005F0BD0B0F5804F14D0CF
:10284000B0F5C04F1CBFB0F5004FB0F5204F03D01E
:102850000EE000F03DF9054628000AD1B96CF06998
:1028600021F460410143B96404E000F02CF9F2E77F
:102870000125A84621780A070ED53068B0F5805F9B
:1028800004D100F020F908B14FF00108796C3068EC
:1028900021F44051014379642278D1060ED5706944
:1028A000B0F5807F04D100F00EF908B14FF00108B7
:1028B000B86C726920F440701043B864D4E9000128
:1028C000030319D5326A32B1B2F5803F0FD0B2F5A9
:1028D000003F03D00EE000F0FBF8054628000AD1C7
:1028E000B96C306A21F440310143B96404E000F06E
:1028F000EAF8F2E70125A846D4E9000143031BD515
:102900007268B2F5801F06D0B2F5001F0ED0B2F586
:10291000401F02D00EE000F0CCF828000BD1796CFB
:10292000706821F440110143796405E000F0C6F8B5
:102930000546F2E70125A846D4E90001C30317D5EF
:10294000226D1AB1B2F5803F0BD00FE000F0B1F864
:1029500028000CD1F96B206D21F480310143F9631B
:1029600006E0022100F0B5F80546F1E70125A8468A
:10297000D4E90001830004D500F0A5F808B14FF0B8
:102980000108D4E9000182031CD5D4F880306BB172
:10299000B3F5807F06D0B3F5007F18BFB3F5407F55
:1029A00004D00DE0FA6942F40032FA612A0008D13D
:1029B0007B6CD4F8802023F4407313437B6401E0E4
:1029C0000125A846C20205D53B6C626F23F0004387
:1029D00013433B64C50005D53B68726B23F4804309
:1029E00013433B60850205D53B6CE26E23F0807398
:1029F00013433B64450009D5D7F800C02CF4004CC4
:102A0000C7F800C03B68B26B13433B60002805D594
:102A1000FB6B626D23F040531343FB63050205D546
:102A20007B6CB26823F4400313437B6411F0010113
:102A300004D000F04DF8010018BF8046D4E9000131
:102A400011F0020305D0012100F043F8010018BF86
:102A50008046D4E9000111F0040305D0022100F002
:102A600038F8010018BF8046D4E9000111F00803CE
:102A700005D0002100F023F8010018BF8046D4E9FA
:102A8000000111F0100304D000F018F8010018BF85
:102A90008046D4E9000111F0200302D000F013F8C1
:102AA00020B9B8F1000F08BF002000D00120BDE818
:102AB000F087F86940F40030F8617047012104F1B3
:102AC000280000F065B9022104F1280000F060B987
:102AD000002104F1080000F003B90000104402587E
:102AE00080B500F0E6FBDFF8B423DFF8B413136819
:102AF000C3F30212895C01F01F01C84002BD00004F
:102B000030B500F082F8C2F30015DA6BC1F305317D
:102B100000F088F81DD000F07EF802D0022C06D01C
:102B200008E000F0B5F8996B00F04CF807E09FED75
:102B3000672A01E09FED662A996B00F053F8996BC4
:102B400000F088F8996B00F076F8996B00F093F834
:102B500001E000F031F82BE030B500F056F8C2F398
:102B600000255A6CC1F3055100F05CF81DD000F04F
:102B700052F802D0022C06D008E000F089F8196C57
:102B800000F020F807E09FED512A01E09FED502A68
:102B9000196C00F027F8196C00F05CF8196C00F063
:102BA0004AF8196C00F067F801E000F005F800BF82
:102BB00010EE101A816030BD00229FED460A0260BF
:102BC00042607047F7EE001AC1F3080101EE101AD7
:102BD000B8EE411A31EE000A70EE211A20EEA10A79
:102BE00070470000DFED3C1AC2EE200AC1F3080175
:102BF00001EE101AB8EE411A00EE211AB7EE000AE3
:102C000031EE000A20EE800A7047DFF88C329C6AB1
:102C1000996ADA6A704714F0030400EE901AF8EE2D
:102C2000600A7047C2F3CC025543002900EE105AE7
:102C3000B8EE400A7047C1F3064100EE901AF8EE74
:102C4000600A70EE810AC0EE200AFCEEE00AC0EDD8
:102C5000010A7047B7EE001AC1F3462100EE901A40
:102C6000F8EE600A70EE810AC0EE200AFCEEE00A7F
:102C7000C0ED000A7047C1F3066100EE901AF8EE4D
:102C8000600A70EE810A80EE200ABCEEC00A70472E
:102C900019689FED111A20EE010A8C060CD51968EF
:102CA000DFF8F021C1F3C101CA4001EE102AB8EEED
:102CB000411AC1EE200A70479FED082AC2EE200A91
:102CC0007047000000480258CFFFFF0020BCBE4BF9
:102CD0000024744A00000000000000390024744CF5
:102CE000F8B500F0CFF801D10120F2BD316821F034
:102CF00080613160FEF7E2FB07463068010106D5CE
:102D0000FEF7DCFBC01B0328F7D30320F2BDB06A3B
:102D1000296820F47C3040EA013000F097F8B06375
:102D2000F16A686921F0C00100F0A8F8A86921F0F3
:102D3000200100F0A3F821F01001F162F06B00F027
:102D40007FF8F063F06A40F01000F0621CB9F06A9E
:102D500040F4002004E0012C04D1F06A40F480101B
:102D6000F06203E0F16A41F40011F162326842F06E
:102D700080623260FEF7A2FB04463068010105D490
:102D8000FEF79CFB001B0328F7D3BEE70020F2BD33
:102D9000F8B500F077F801D10120F2BD316821F0DB
:102DA00080513160FEF78AFB07463068810006D506
:102DB000FEF784FBC01B0328F7D30320F2BDB06AE3
:102DC000296820F07C7040EA015000F03FF8306440
:102DD000F16A686921F4406100F050F8A86921F4B3
:102DE000007100F04BF821F48071F162706C00F01A
:102DF00027F87064F06A40F48070F0621CB9F06AE1
:102E000040F4800004E0012C04D1F06A40F400009A
:102E1000F06203E0F16A41F08071F162326842F0E1
:102E200080523260FEF74AFB04463068810005D4C8
:102E3000FEF744FB001B0328F7D3BEE70020F2BDDA
:102E4000E9696FF3CF0040EAC1007047B062A9683A
:102E50006868EA68491E4902401EC0F30800521E15
:102E600001F47E4112040843296902F4FE02104372
:102E7000491E090601F0FE41084370470143F16213
:102E8000F16A70470546044EB06A0C4600F0030034
:102E9000032870470090D003004402582044025891
:102EA000144A0008D3BBD9B1B2F5803F5BD2022AE5
:102EB0001ED98C46B1FBF2F102FB11C31B0443EA9D
:102EC0001043B3FBF2FC02FB1C3380B240EA034325
:102ED000B3FBF2F002FB103240EA0C4000237047D3
:102EE000022A05D98446B0FBF2F002FB10C27047FB
:102EF0004AB105D100F0010249085FEA300070478D
:102F000000220023704701F0ABBC0B00020000213F
:102F100000207047F7D3002200237047904271EBE6
:102F2000030CF2D370B5B1FA81F4B3FA83F52C1B1C
:102F3000A340C4F1200532FA05F63343A2405FF006
:102F40000046E64002E05B085FEA3202841A71EB59
:102F5000030524BF204629467641F4D302000B0026
:102F60003000002170BD70B5B1FA81F4B2FA82F57B
:102F7000C4F120046419B4F12006DAD3B2405FF042
:102F80000044F440002502E052085FEA3303C61A09
:102F900071EB020E24BF3046714664416D41F3D39C
:102FA00002000B002000290070BD00002DE9F04157
:102FB000040088465AD0DFF86C73386800F00F00C0
:102FC000404502D200F0D0F850D12078DFF85853B5
:102FD000420706D52069A96901F07001814200F01D
:102FE000E2F82078020706D56069E96901F070010E
:102FF000814200F0D1F82078C20606D5A069E969BF
:1030000001F4E061814200F0C0F8207882060AD520
:10301000E069296A01F07001814204D22A6A22F033
:103020007002104328622078820706D5E068A969FB
:1030300001F00F01814200F0A1F82078C20731D5DC
:10304000A969A06821F470610143A9616068022840
:1030500002D129688A0308E0032802D129688A017D
:1030600003E0012803D12968CA0503D42CE02B68AA
:10307000590729D52A69D20840EAC2002861FEF71B
:103080001DFA06462869616800F03800B0EBC10FF0
:1030900008D0FEF713FA801B41F289329042F1D337
:1030A00003205FE02078820706D5E068A96901F077
:1030B0000F01884200F062F8386800F00F00804588
:1030C00004D200F051F801D001204BE020784207F3
:1030D00006D52069A96901F07001884200F063F803
:1030E0002078020706D56069E96901F0700188421D
:1030F00000F052F82078C20606D5A069E96901F40B
:10310000E061884200F041F8207881060AD5E06944
:103110002A6A02F07002904204D2296A21F07001FA
:103120000843286200F046F8AA69DFF81012C2F3DB
:1031300003228B5CAC69DFF8F45104F00F04095DE5
:1031400003F01F03D840DFF8E83101F01F0120FA37
:1031500001F21A602860DFF8E0010068BDE8F04184
:1031600001F080BBBDE8F0813968090948EA011126
:1031700039603A6802F00F024245704704D2AA69EA
:10318000120940EA0210A861704704D2EA6922F4E9
:10319000E0621043E861704704D2EA6922F07002ED
:1031A0001043E861704704D2AA6922F0700210430C
:1031B000A861704730B55C4B5E48196911F0380161
:1031C00004D010290AD018290AD069E01A68940698
:1031D00067D51968C1F3C101C84030BD584830BD3A
:1031E0009C6A996ADD6A5A6B05F00105C1F3051105
:1031F000C2F3CC025543002900EE105AB8EE400A43
:103200004CD014F0030400EE901AF8EE600A02D0DD
:10321000022C20D022E019689FED3E1A20EE010A10
:103220008A0608D51968C1F3C101C84000F03CF80E
:10323000C1EE200A03E09FED382AC2EE200A186B87
:10324000F7EE001A00F02EF831EE000A70EE211AA7
:1032500020EEA10A13E09FED312A01E09FED302A14
:10326000186BDFED2C1AC2EE200A00F01BF800EEFE
:10327000211AB7EE000A31EE000A20EE800A186B20
:10328000C0F34620401C00EE900AF8EE600A80EE83
:10329000200ABCEEC00A10EE100A30BD002030BD7E
:1032A000284830BDC0F3080001EE100AB8EE411AFC
:1032B000704710B5FFF77EFF234A204B1168126854
:1032C0001A4CC1F30321595C02F00F0201F01F01F7
:1032D000C84020609A5C164902F01F02D040086086
:1032E00010BD80B5FFF7E5FF00F00FF8C3F3021241
:1032F00006E080B5FFF7DDFF00F007F8C3F3022218
:10330000895C01F01F01C84002BD104A0B491368D7
:1033100070470000000000390024744C20BCBE4BF4
:103320000024744A00200052004402588803002000
:103330008C0300200090D00384030020144A00086E
:1033400040787D0100093D00184402581C44025891
:103350000901020002D4454881547047444B02F0F1
:103360000F029A1802F8041C704742490A6860F379
:103370000A2240F2FA5060F31F420A60704770B5AB
:103380003C4B1C68C4F302230124C3F10705052D3F
:103390002EBF0F2504FA05F56D1E1E1D072E34BF26
:1033A0000023DB1E2940994004FA03F35B1E1A40F8
:1033B0001143BDE87040CBE7010007D4012200F0C3
:1033C0001F018A402C4B400943F820207047401EC3
:1033D000B0F1807F10B501D3012010BD2749284AE4
:1033E0004860F020107000238B6007240C600020E0
:1033F00010BDBFF35F8F23480022016821F48031A4
:103400000160026770471F4940F0010008670868C3
:1034100040F480300860BFF34F8FBFF36F8F704769
:1034200010B5427818490A608B685B085B008B60B6
:1034300042684A60C27A037B447B120642EA037206
:10344000837A42EAC342837B42EA8442C47B42EAF3
:103450004342437A42EA0442047A007842EA032271
:1034600042EA440202438A6010BD000000E400E02A
:1034700018ED00E00CED00E000E100E010E000E0FD
:1034800023ED00E024ED00E098ED00E04018491C39
:103490001CBFB1F1010100F8012DF9D17047000006
:1034A0002DE9F84F0027DFF8DC814FF0B045DFF859
:1034B000D89102460B462EE0744CA24214BF0A2457
:1034C00009248C4044EA0E047149C64341F82C405B
:1034D00029685C683140E40248BF0143296069689B
:1034E0005C683140A40248BF01436960D8F8041009
:1034F0005C683140A40348BF0143C8F80410D8F801
:10350000001006EA010C5968C90348BF40EA0C0CD8
:10351000C8F800C07F1C186830FA07F100F0A380DB
:103520000121B9400840F5D04FEA470C032404FAC2
:103530000CF46FEA040E5C6804F00306012E1CBF55
:1035400004F00304022C10D19468DE680EEA04042F
:1035500006FA0CF634439460546824EA01015C686E
:10356000C4F30014BC40214351601C79B90004F03D
:103570000304032C20D0D4689E680EEA040406FAE3
:103580000CF63443D4601C7904F00304022C13D1EC
:10359000FE084FF00F0A02EB860401F01C060AFA3F
:1035A00006FAD4F820B02BEA0A0BD3F810A00AFAD6
:1035B00006F646EA0B06266214680EEA04061C7933
:1035C00004F0030404FA0CF444EA060CC2F800C048
:1035D0005C6814F4403F9DD0D9F800404FEA970C46
:1035E00001F00C012B4E44F00204C9F80040D9F858
:1035F00000E00EF0020ECDF800E0009CDFF890E055
:103600005EF82CE00F248C40B2422EEA040E08BF74
:10361000002427D0204CA24208BF012422D01F4CF6
:10362000A24208BF02241DD01D4EB24208BF03248F
:1036300018D01C4CA24208BF042413D01A4EB24228
:1036400008BF05240ED0194CA24208BF062409D099
:10365000174EB24208BF072404D0164CA2427FF492
:103660002BAF08242DE7BDE8F18F02B90904816171
:103670007047426901EA0203914341EA03418161D3
:103680007047000080000058F4440258002402589B
:1036900008040058000002580004025800080258AC
:1036A000000C02580010025800140258001802586A
:1036B000001C0258002002580170002180F80111FE
:1036C0007047C0F804117047C0F80811704738B54A
:1036D0000446154604F20E2001F0E6F804F20E301E
:1036E00000210570417031BD70B500F1FE0400F29B
:1036F000022522790270637943702978411801F517
:1037000080714B780E7800F58271801C46EA0326A2
:1037100066802A78121F01F0C7F82B7800221E1F3E
:1037200026706A7070BD30B503464FF6FF700024F6
:1037300000E0641C8C420DDA1A5D504008224508F6
:10374000C00752BF284685F4204080F00100521E79
:10375000F5D1EEE730BD2DE9FE4F0C784A780C9D8F
:10376000002642EA04288A78C978ADF8006041EA68
:10377000022AAAF10102941002EB5472D210521CD8
:10378000D2B2019229784C1C2C70019A5A54D0F86C
:103790000411002942D0B1460D9922E0DDF808C09D
:1037A00008EBC9006946761CDCF80431584480B245
:1037B000984701002BD1BDF8000018B1012101FA92
:1037C0000BF10F430BF1010BBBF1080F12DB2A7851
:1037D000234602989DF8341009F10109541C2C70FD
:1037E0009F54019A914519DA0027BB4602901C4666
:1037F0008DF83410B0B25045E9DA9DF8340000215C
:10380000ADF80010002814BF02220122C6E70221F1
:10381000297000F08DF84A1C2A706054BDE8F78FBB
:103820003EB5002401E03EB50124069D01940095BB
:10383000FFF791FF37BD2DE9FC470D784A780A9FC5
:103840008C78C9780B9E4FF0000A42EA05283A7836
:1038500041EA0429551C3D701D464FEA49049C5419
:1038600004460EE038780AF1010A411C3970BDF8AF
:103870000020120A2A54481C3870BDF80030C9B222
:103880006B54CA451CDA0021ADF80010D4F804319D
:10389000002BE7D0F0B2002814BF042203220AEB69
:1038A0000800694680B298470100DBD002223A70D6
:1038B0006978A1F180036B7039784A1C3A706854BA
:1038C000BDE8F3873EB5002401E03EB50124069D26
:1038D00001940095FFF7AFFF37BDF8B500F015F87C
:1038E00033B10522394630469847010000D019E02F
:1038F00024E0F8B500F009F833B106223946304625
:103900009847010000D00DE018E01C460B784E7877
:103910008A78CF78069D46EA0326D0F8083147EA30
:103920000227704700F004F84E1C2E706054F1BD61
:103930006378A3F180016170297870472878310A93
:103940002154401CC3B2401CE6543E0AC1B2401C84
:103950006654411C2970C0B22754F1BD2DE9FE4FB9
:103960008B460C9D9BF800109BF801609BF8022091
:103970001C46002746EA01269BF8031041EA02286C
:103980009BF80410320A019129786254491C4A1CA0
:10399000C9B22A706654D0F8081100293FD0B94640
:1039A00014E0DDF800C006EBC9000522DCF80831A0
:1039B000504480B2984701001DD17F1C0AF1010AD2
:1039C000BAF1080F08DB009809F10109019989454E
:1039D0001CDA4FF0000A0090B8B24045F3DA0BEB66
:1039E00009000121427901FA0AF10A4214BF4FF499
:1039F0007F410021D5E702222A706178A1F180067B
:103A0000667029784B1C2B70605408E028783904C4
:103A1000090E2154401C461CC0B22E702754BDE82C
:103A2000F78F2DE9F84F0A9F0C784A78CD7842EA53
:103A300004288A7845EA02293A7800259C54521CC9
:103A4000561CD2B23E7003F80280D0F808210AB9A1
:103A5000BDE8F18FAB4604468A461E4602E06D1C67
:103A60000BF1010BCB4519DA0AEB4B000622437927
:103A700081790BEB080080B241EA0321D4F80831C8
:103A800098470100EBD0022139707278A2F18004CE
:103A9000747039784B1C3B707054D9E7387829041E
:103AA000090E3154401C441CC0B23C703554CFE761
:103AB000F8B5044604F20E36707808B10120F2BD64
:103AC00004F5867004F20115FFF70EFE0022E87A75
:103AD0002A702178884203D0012302207370F2BD3E
:103AE0003078811E89B204F20E20FFF71CFE04F22A
:103AF0000A225188884203D0012070700320F2BD51
:103B00002878631C461C2E702178195428782E7B47
:103B1000611C471C2F700E54287B04F58771012807
:103B20000ED0022821D0032824D0042827D005282D
:103B30002AD006282DD00F2830D0102833D037E0D7
:103B400000F038F8FFF76CFE2978601CFFF7EBFDFA
:103B50002978631C641C4A1C2A7058542978000A6E
:103B60004E1C2E7060540020F2BD00F023F8FFF7C9
:103B70005AFEE9E700F01EF8FFF7A4FEE4E700F0C4
:103B800019F8FFF7A2FEDFE700F014F8FFF7A5FE33
:103B9000DAE700F00FF8FFF7ACFED5E700F00AF81F
:103BA000FFF7DCFED0E700F005F8FFF73AFFCBE7C0
:103BB000F220F2BD009512782046704790F801215E
:103BC000401C0A707047000038B50320DFF84C50E5
:103BD000FFF7CBFBFFF7EEFA1149124A0B68C3F36C
:103BE0000323D45C096801F00F01525C04F01F0448
:103BF000E0400D4C02F01F0220FA02F3236028601F
:103C00000F2000F02FFE08B1012032BDFDF7C6FBEA
:103C1000002032BD05480068000C70478803002072
:103C200018440258144A00088C0300200010005C5D
:103C30000849094A51F82000904201D100207047FC
:103C40000120704741F44071014A42F8201070474A
:103C5000006402588064025800030080002200F0D3
:103C60002FBE000010B500F184010A78012A01D1AD
:103C7000022010BD012324220B704A6002681368E1
:103C8000146864086400146000224266006823F02F
:103C90000053036020234B6000200A7010BD70B5F4
:103CA00000F01FF801D1022070BD00F020F823F0D1
:103CB000604309E070B500F014F801D1022070BD36
:103CC00000F015F823F0606319438160204600F08E
:103CD0001BF82068202100220660002069602A70FD
:103CE00070BD044604F1840528780128704701233B
:103CF00024202B7068602068066802685208520011
:103D0000026020688368704730B5416E11B90122A6
:103D1000012114E0026800BF0FF22C040CA391688B
:103D20009268490E01F00701520FA55C645C9A5C31
:103D3000595C2D01240195FBF2F294FBF1F16830FE
:103D40004280018030BD0000010101030701000035
:103D5000080402040801010138B5040001D1012062
:103D600032BD00F06BF818B900F064F8FDF723FBE2
:103D700049E010B590F83D10012901D0012010BD97
:103D8000022380F83D300168DFF8B830CA6842F09D
:103D90000102CA600168994218BFB1F1804F17D083
:103DA000DFF8A42091421CBFDFF8A03099420FD069
:103DB000DFF89C40A1421CBFDFF89820914207D059
:103DC000DFF8943099421CBFDFF89040A1420BD13C
:103DD0008A68DFF88C101140062918BFB1F5803FC2
:103DE00008D000F009F805E00B461A46196841F0C2
:103DF00001011160002010BD01680A6842F0010253
:103E00000846026070470220211D6870206800F09B
:103E100068F90120012128730122A970EA70287134
:103E20006971AA71E87129726A72A8720020E97238
:103E30006A7032BD002120462970704704F13C05AC
:103E4000687870470000014000040040000800400E
:103E5000000C0040000401400018004000400140F8
:103E60000700010070B504000D4601D1012070BDAE
:103E700004F13C06707820B900212046317000F032
:103E800038FD0220211D7070206800F02AF920689A
:103E90000123016821F00801016020680121026806
:103EA00015430122056001203073B170F370307248
:103EB00000207172727070BDF8B504462068C56844
:103EC0000669B10714D5AA0712D56FF002030121C4
:103ED00003612177806910F0030F204602D000F0C3
:103EE00009FD03E000F007FD00F087F800202077CF
:103EF000710715D5680713D520686FF004010222F9
:103F000001612277806910F4407F204602D000F0E2
:103F1000F1FC03E000F0EFFC00F06FF800202077E8
:103F2000310715D5280713D520686FF00801042242
:103F300001612277C06910F0030F204602D000F023
:103F4000D9FC03E000F0D7FC00F057F80020207700
:103F5000F10615D5E80613D520686FF01001082288
:103F600001612277C06910F4407F204602D000F042
:103F7000C1FC03E000F0BFFC00F03FF80023237712
:103F800006F0010205F001010A4206D027686FF031
:103F9000010320463B61FDF74DFE16F4025F08D099
:103FA0002A0606D521686FF402500861204600F009
:103FB000A3FCF20508D52B0606D521686FF48070A6
:103FC0000861204600F099FC720608D56B0606D5FC
:103FD00021686FF040000861204600F08FFCB006B9
:103FE0000AD5AA0608D520686FF020010161204695
:103FF000BDE8F24000F083BCF1BD204600F080BC7B
:10400000F8B5044604F13C0630780025012801D1BA
:104010000220F2BD012202233270DFF8D00173705A
:1040200022689368034093600868070018BF10284F
:1040300041D0202818BF30283DD0402837D0502804
:104040002AD060282CD0702817D0B0F5805F38D0E7
:10405000B0F5005F18D0B0F5801F18BFB0F1101F89
:1040600029D0DFF88C1188421FBFDFF88811884201
:10407000DFF8841188421ED022E000F02CF820687E
:10408000816841F0770105E000F025F8206881683B
:1040900041F48041816014E000F019F850210BE0F8
:1040A000CA684968206800F086F8602104E000F0E2
:1040B0000EF8402100E00146206800F08EF800E094
:1040C000012501200021707028463170F2BDCA68B8
:1040D000496820685DE0CB684A688968206800F01C
:1040E0009FB82DE9F043DFF814C10368DFF81041F1
:1040F000DFF81051DFF81081DFF81091DFF81021A0
:10410000DFF810E1DFF81061604518BFB0F1804FB3
:1041100007D0B04218BF704503D0904218BF484541
:104120000DD123F070074B683B43604518BFB0F1D9
:10413000804F0CD0B0421CBF7045904207D048451C
:1041400018BF404503D0A84218BFA04203D123F4B2
:104150004072CB6813434A69D1F808E023F080032A
:10416000C0F82CE00E6813438662604518BF4845CE
:1041700004D040451CBFA842A04201D10969016397
:104180000268012442F00402026044610360BDE859
:10419000F08330B5036A046A6408640004628569C8
:1041A00023F00A03194325F0F00545EA0215FFE75D
:1041B0008561016230BD30B5036A046A24F01004E1
:1041C0000462856923F0A00343EA011325F47045D6
:1041D00045EA02358561036230BD83680F4A1340AA
:1041E000194341F007018160704700008800CEFF4D
:1041F00020001000300010004000100000000140BE
:1042000000480140004401400040014000040140DA
:10421000000C004000080040000400408FFFCFFF6A
:1042200010B5846824F47F442143114341EA0321FB
:10423000816010BDF0B500F13C031A78012A01D16C
:104240000220F0BD012402221C70DFF878C05A70F1
:1042500005681D4F6E68AC68654518BFBD4203D147
:1042600026F470024E6816430A6826F0700616435C
:104270006E600268624518BFB2F1804F10D01048DE
:1042800082421CBF114DAA420AD00C4EB24218BF46
:10429000BA4205D0084882421CBF0D4DAA4204D143
:1042A000886824F08004044394600121002259703E
:1042B00000201A70F0BD000000180040000C004003
:1042C00000040040000001400004014000080040DC
:1042D00000400140F8B50446DFF86C50A86800F0D3
:1042E0000700062805D0A96801F03F01A14228D0A7
:1042F00025E0A86840F2E937800944EA8010A86008
:10430000FDF7DCF806462868810405D4FDF7D6F8E9
:10431000801BB842F7D312E01E2C18BF2E2C03D0FE
:104320001D2C18BF2D2C0CD1FDF7C8F80446A86829
:10433000C10306D4FDF7C2F8001BB842F7D3012031
:10434000F2BD0020F2BD0000044802582DE9F04102
:1043500004002CD02078DFF8F854C10711D5286963
:10436000A96A00F03800102805D0182804BF01F011
:104370000301022930D129688A0302D56068002828
:1043800015D0217841F2040688076BD52869A96AFF
:10439000202700F0380028B1182808BF11F0030FBB
:1043A00040F0A980E06829684A0702D5002800F09B
:1043B0002D82296821F0190108432860FDF77EF855
:1043C00080462868410742D4FDF778F8A0EB080042
:1043D0000328F6D3032038E26068B0F5803F0FD0A1
:1043E00038B9296821F480312960286820F48020B8
:1043F00009E0B0F5A02F08D1296841F48021296097
:10440000286840F48030286007E02A6822F480326F
:104410002A60296821F480212960606858B1FDF77D
:104420004DF8064629688803ABD4FDF747F8801B92
:104430006528F7D3CEE7FDF741F8064628688103E3
:104440009FD5FDF73BF8801B6528F7D3C2E7FFF740
:10445000E1FBB04248D2206940283ED1686867F34A
:10446000113068602178C8061ED528691027A96A0E
:1044700000F03800082805D0182804BF01F0030117
:10448000012973D12868C10503D5E269802A40F06B
:10449000BD81FFF7BFFBB04260D2206A202856D111
:1044A000686867F39E60686021780A0740F1998028
:1044B0006069002800F08580696F41F0010169673B
:1044C000FCF7FCFF0646686F810700F18A80FCF765
:1044D000F5FF801B0328F6D37CE7696821F47C3163
:1044E00041EA00316960BDE76868216920F0FE405B
:1044F00040EA0160B5E7E068C8B1296821F0190118
:1045000008432860FCF7DAFF80462868410706D494
:10451000FCF7D4FFA0EB08000328F6D35AE7FFF717
:1045200079FBB042E0D220694028D6D196E72A68CC
:10453000520852002A60FCF7C1FF0746286841076D
:1045400090D5FCF7BBFFC01B0328F7D342E769688F
:1045500021F0F84141EA80616960A5E7E868216AD5
:1045600020F07C5040EA0160E8609DE7E069C0B15E
:10457000296841F080012960FCF7A0FF8046286887
:10458000C10506D4FCF79AFFA0EB08000328F6D378
:1045900020E7FFF73FFBB042E0D2206A2028D6D1C7
:1045A0007EE72A6822F080022A60FCF787FF064631
:1045B0002868C105D9D5FCF781FF801B0328F7D3F4
:1045C00008E7686F400840006867FCF777FF064619
:1045D000686F810705D5FCF771FF801B0328F7D3AF
:1045E000F8E621788A0621D5A069296800280ED02E
:1045F00041F480512960FCF761FF06462868810478
:1046000014D4FCF75BFF801B0328F7D3E2E621F408
:1046100080512960FCF752FF06462868810405D5C1
:10462000FCF74CFF801B0328F7D3D3E62078420722
:1046300048D5884F396841F480713960FCF73EFFF6
:1046400006463868C10505D4FCF738FF801B65288D
:10465000F7D3BFE6A068012804D1286F40F001001D
:10466000286713E008B9286F09E00528286F06D1EC
:1046700040F004002867296F41F0010105E040087F
:1046800040002867296F21F004012967A06841F2E2
:10469000893658B1FCF712FF0746286F810711D4FD
:1046A000FCF70CFFC01BB042F7D393E6FCF706FF04
:1046B0000746286F810705D5FCF700FFC01BB042F5
:1046C000F7D387E6606A002800F0BE802969624E51
:1046D00001F03801182973D02968022821F080716F
:1046E000296061D1FCF7EAFE07462868810105D5FB
:1046F000FCF7E4FEC01B0328F7D36BE6AB6AA16AA4
:104700005648E26A03400B4343EA0213AB62616B13
:10471000206BA26B491E4902401EC0F30800521EC6
:1047200001F47E4112040843E16B02F4FE021043DF
:10473000491E090601F0FE4108432863E86A400863
:104740004000E862696BA06C0E4046EAC0066E63EA
:10475000E96A206C21F00C010143E962E96A606CAE
:1047600021F002010143E962E96A41F48031E96222
:10477000E86A40F40030E862E96A41F48021E962C5
:10478000E86A40F00100E862296841F08071296020
:10479000FCF794FE04462868810155D4FCF78EFE90
:1047A000001B0328F7D315E6FCF788FE04462868AB
:1047B000810149D5FCF782FE001B0328F7D309E6E7
:1047C0000128A96A2A6B21D0A36A01F0030098424C
:1047D00002BFC1F30510E16A884217D1236BC2F30F
:1047E0000800401C984201BFC2F34620401C616B88
:1047F00088420BD1A16BC2F30640401C884201BF26
:10480000C2F30660401CE16B884201D001201CE02D
:10481000686BA16CC0F3CC00814215D0E86A4008F7
:104820004000E862FCF74AFE0546FCF747FE401BE5
:10483000FBD00748416BA26C0E4046EAC2064663B5
:10484000C16A41F00101C1620020BDE8F08100BFF2
:1048500000440258004802580700FFFF0CFCFFFF0D
:104860007047000038B504460D4D2878A8B10D4AB0
:104870004FF47A711368B1FBF0F0B3FBF0F0FEF780
:10488000A6FD50B9102C08D2002221464FF0FF306F
:10489000FEF775FDAC60002032BD012032BD00BFC7
:1048A0007C030020880300204AB1000011F8013B7E
:1048B000521E00F8013B1CBF11F8013BF8E770479E
:1048C00000B500BF130096469446103928BFA0E8F3
:1048D0000C50FAD85FEA417C28BF0CC048BF40F8B2
:1048E000042BC90728BF20F8022B48BF00F8012B72
:1048F00000BD7047704770477047704770477047FA
:104900007047000070B53648816F41F470018167CF
:104910000268072142F010020260324A106800F07B
:104920000F00072803D2106861F3030010602E4BBC
:1049300000261D682D4845F001051D601E611C689C
:1049400004401C60156805F00F05072D03D9106899
:1049500061F3030010600021002299610020DA61F8
:1049600023491862234A99622348DA6200211863B6
:10497000002259639863DA63186400205864196848
:104980001E4821F4802119601D491A66036843F40A
:10499000804303600A68120C1204B2F1005F02D275
:1049A00001201849086018480268D3040BD4046831
:1049B00043F2D201154A44F4805404601160036844
:1049C00023F48053036070BD11480121826861F3B4
:1049D0004202826001688A04FCD570470000000032
:1049E00010ED00E000200052004402587FEDF6EA8E
:1049F000000202020000FF0180020101E4000058F1
:104A00000010005C08810051D4440258004000525C
:104A100004480258000000000102030401020304DC
:104A20000607080930B4002512E050F8042BD3071C
:104A300044BF4A44521E091F042942F8045BFAD2BB
:104A400013468C0744BF15809B1CC90748BF1D70C7
:104A500050F8041B0029E8D130BC7047FEE7FEE7A0
:104A6000FEE7FEE7FEE770477047704700F010B8BA
:104A70000448FFF721BA0448FFF71EBA0348FBF7C2
:104A8000F5BC0000240500207005002090040020E3
:104A90000248416802788A18426070477C0300200F
:104AA00010B5074979441831064C7C44163404E0AB
:104AB0000A68081D891888470146A142F8D110BD2F
:104AC0007C000000980000004EF68851CEF20001F4
:104AD000086840F470000860BFF34F8FBFF36F8F1A
:104AE0004FF00170E1EE100A7047000000F00FF87F
:104AF000002801D0FFF7D4FFAFF300800020AFF310
:104B00000080AFF30080FDF789F900F002F8012082
:104B1000704700F001B8000000F000F80746384682
:104B200000F002F8FBE7000080B5AFF30080024A16
:104B300011001820ABBEFBE726000200E9FEFFFFD4
:104B40002C02000090030020000000006FD7FFFF40
:104B500078020000E4000000000000204EF6A5509E
:104B6000CFF6F560014603B4684680F30988AFF3D9
:104B70000080FFF7A9FFFFF7B9FF00000248804758
:104B80000248804702480047C94900080549000813
:104B90005D4B0008FFF7FEBFFFF7FEBFFFF7FEBF4C
:104BA000FFF7FEBFFFF7FEBFFFF7FEBFFFF7FEBF39
:104BB000FFF7FEBFFFF7FEBFFFF7FEBFFFF7FEBF29
:104BC000FFF7FEBFFFF7FEBFFFF7FEBFFFF7FEBF19
:104BD000FFF7FEBFFFF7FEBFFFF7FEBFFFF7FEBF09
:104DC000FFF7FEBFFFF7FEBFE8002F64006400643A
:104DD0000064006400640064006400E803E803E821
:104DE00003E803E803E803E803E8031000200040B9
:104DF0000002000400000800100020FA001D025804
:104E00000000025800000258000402580004025832
:104E10000014025800140258001402588100810046
:104E20008100810081008100EA000001F90000108A
:0A4E3000FC000690D0030090D003B0
:0400000508004B5D47
:00000001FF
